:100667003F065B4F666D7D077F6F777C395E7971DB
:010677000082
:10065200012200013A00015C00013700C182C1831E
:04066200022700006B
:10056100E4FDFCC3ED9FEC9E5015E4FBFA0BBB00D0
:0F057100010ABA07F8BBD0F50DBD00010C80E4FC
:010580002258
:0F068800EF04F53A8F37C292D293D296C29722DF
:0D000E008F3A8F37D296C297D292C29322BA
:0D0697008F3A8F37C292D293C296D297222B
:0906D200C292C293C296C29722A3
:100678007590FF8F3A8F37D292C293C296D2972243
:0D06A4008F3A8F37C292D293C296D297221E
:10039A0075322575331C7530C3753150E533153305
:1003AA00AE32700215324E60077F081206A480EC46
:1003BA00753A0375370320B30A20B4077F0812067B
:1003CA00A480F320B30F30B40C7F081206A430B314
:1003DA00F220B4EF2230B30F20B40C7F081206A427
:0703EA0020B3F230B4EF2252
:0103F10022E9
:0403F200AD07AC06A1
:1003F600ED1DAE0470011C4E603920B40830B30503
:100406007F0512000E30B40820B3057F051206974B
:1004160030B40830B3057F0512067830B40830B31F
:10042600057F0512068820B4C720B3C47F081206CC
:030436007880BD0E
:0104390022A0
:1005A100300318E522D3953A5004D2948002C294C4
:0E05B100E522C394144006E4F52222C29422EF
:1005BF00300218E55CD395375004D2958002C2956E
:0E05CF00E55CC394144006E4F55C22C295225C
:10043A00AB07781374FF120583EC4D4E4F603120E1
:10044A00B40B20B308AF0312068812068820B4083A
:10045A0030B305AF0312069720B30830B405AF03D3
:10046A0012000E20B3CC30B4C9AF0312068880C282
:01047A00225F
:03000B00020540AB
:10054000C0E0C0D0758CFC758A180528E5287002BB
:1005500005270522055C1205A11205BFD0D0D0E009
:010560003268
:0706DB00C292C2A5C29222E7
:100627001206DBD2A6EF90066793F580C2A6D2A783
:060637007580DFC2A6225F
:0A06C800E4F58DF58BD2ABD28E2243
:0706E200D288D2A8D2AF229A
:03001B00020006DA
:030006000524329C
:0300030002047B79
:09047B00C0E0C0D075D000C00043
:10048400300029E524C3943F500AE524C394214055
:1004940003752100743B2521F8A624752400052149
:1004A400E521B4210CD2017521008005752400D208
:0104B4000047
:0704B500D000D0D0D0E032EE
:1004BC007E01E4FD7C01743B2EF8E6D394074003E7
:1004CC00430780ECC394085004EFC313FF0E0CBC1D
:1004DC0009E474292DF8A607E4FF0DBD04D6D20457
:0104EC0022ED
:100610001206E21206C81206D23001051204BCC24C
:07062000013004F2C20422C4
:0306E900DFFE220F
:10063D00AE07AF061EEF600C7FF51206E97FF512CF
:05064D0006E980EE2229
:03001B000204EDEF
:1004ED00C0E0C0F0C0D0758DFF758BA3E526C39518
:1004FD00235004D2A78002C2A70526E52675F02851
:0B050D008485F026D0D0D0F0D0E03282
:1005DD00758921758CFC758A18D28CD2A9D2AF750C
:0A05ED008DFF758BA3D2ABD28E22D6
:0C06B1008F121206D23086032087FA2236
:1005F700E4FEEF24FE6007047006C2828002C28315
:080607000EBEC8EED282D283C0
:01060F0022C8
:10031D00E4751AC4751909F518F517781774FF12D5
:10032D000583EC4D4E4F60077F0812068880ECE484
:10033D00751A1A751904F518F517781774FF120543
:10034D0083EC4D4E4F60077F0812000E80ECE47574
:10035D001A80751925F518F517781774FF1205838E
:10036D00EC4D4E4F60077F0812068880ECE4751A3D
:10037D00DC751905F518F517781774FF120583EC60
:0C038D004D4E4F60077F0812000E80EC00
:010399002241
:10051800E4F515F514F513F5127515B875140BF502
:1005280013F512781274FF120583EC4D4E4F6007D5
:070538007F0812000E80ECA9
:01053F002299
:0B06BD00EF540F24FB700312051822FD
:02001E00AB072E
:10002000E4F51EF51DF51CF51BEB640160030200F1
:10003000ED751E10751D0EF51CF51B781B74FF1257
:100040000583EC4D4E4F60077F0812068880ECE474
:10005000751E3A751D07F51CF51B781B74FF1205FC
:1000600083EC4D4E4F60077F0812000E80ECE47564
:100070001E0C751D17F51CF51B781B74FF120583EC
:10008000EC4D4E4F60077F0812068880ECE4751E29
:10009000DC751D05F51CF51B781B74FF120583EC40
:1000A0004D4E4F60077F0812000E80ECE4751E680D
:1000B000751D10F51CF51B781B74FF120583EC4DA4
:1000C0004E4F60077F0812068880ECE4751E1C7591
:1000D0001D0CF51CF51B781B74FF120583EC4D4EAF
:1000E0004F700302018F7F0812069780E9EB6402CC
:1000F000600302018F751EC4751D09F51CF51B7880
:100100001B74FF120583EC4D4E4F60077F081206EB
:100110009780ECE4751E0C751D17F51CF51B781BFC
:1001200074FF120583EC4D4E4F60077F081206885E
:1001300080ECE4751ED0751D07F51CF51B781B744B
:10014000FF120583EC4D4E4F60077F0812000E80B2
:10015000ECE4751E50751D14F51CF51B781B74FF1F
:10016000120583EC4D4E4F60077F0812068880EC25
:10017000E4751E34751D08F51CF51B781B74FF1201
:0F0180000583EC4D4E4F60077F0812000E80EC98
:01018F00224D
:10019000E4F50BF50AF509F508F50FF50EF50DF583
:1001A0000CF5107908F5807590F0C2A57580FED227
:1001B000A7C2A7F52EF52FF534753501AF2F12061E
:1001C00027E4F5367F017E0012056120B7F305367E
:1001D000E536C3943240EDC2A37F0A7E001205616A
:1001E000D2A31205DD20B40E20B30BAF0112068896
:1001F00012068875110120B40830B305AF0112064C
:100200009720B30830B405AF0112000E30B3D630DA
:10021000B4D3AF011206887F0A12063DE5116011C2
:10022000052FE52F7002052EFF1206277F0112050C
:10023000F7E4F511FEE52F5407FF64026005EF6453
:10024000067035E4750B2C750A01F509F508780878
:1002500074FF120583EC4D4E4F60077F081206882D
:1002600080EC120518E475165875151BF514F51376
:100270007F0812043A1206B17E00E52F5407FF648E
:10028000036008EF640760030201E512051802012C
:01029000E588
:0300000002029168
:0C029100787FE4F6D8FD75815C0202D88D
:100581007401FF3395E0FEFDFC080808E6CF2FF665
:1005910018E6CE3EF618E6CD3DF618E6CC3CF6223E
:10029D00020190E493A3F8E493A34003F68001F2E6
:1002AD0008DFF48029E493A3F85407240CC8C33362
:1002BD00C4540F4420C8834004F456800146F6DF31
:1002CD00E4800B0102040810204080900652E47E69
:1002DD00019360BCA3FF543F30E509541FFEE49326
:1002ED00A360010ECF54C025E060A840B8E493A3ED
:1002FD00FAE493A3F8E493A3C8C582C8CAC583CA18
:10030D00F0A3C8C582C8CAC583CADFE9DEE780BECF
:010666000093
:00000001FF
